{
  "_format": "hh-sol-artifact-1",
  "contractName": "NightMarket",
  "sourceName": "contracts/nightmarket.sol",
  "abi": [
    {
      "inputs": [],
      "stateMutability": "nonpayable",
      "type": "constructor"
    },
    {
      "anonymous": false,
      "inputs": [
        {
          "indexed": true,
          "internalType": "address",
          "name": "owner",
          "type": "address"
        },
        {
          "indexed": true,
          "internalType": "address",
          "name": "approved",
          "type": "address"
        },
        {
          "indexed": true,
          "internalType": "uint256",
          "name": "tokenId",
          "type": "uint256"
        }
      ],
      "name": "Approval",
      "type": "event"
    },
    {
      "anonymous": false,
      "inputs": [
        {
          "indexed": true,
          "internalType": "address",
          "name": "owner",
          "type": "address"
        },
        {
          "indexed": true,
          "internalType": "address",
          "name": "operator",
          "type": "address"
        },
        {
          "indexed": false,
          "internalType": "bool",
          "name": "approved",
          "type": "bool"
        }
      ],
      "name": "ApprovalForAll",
      "type": "event"
    },
    {
      "anonymous": false,
      "inputs": [
        {
          "indexed": true,
          "internalType": "address",
          "name": "from",
          "type": "address"
        },
        {
          "indexed": true,
          "internalType": "address",
          "name": "to",
          "type": "address"
        },
        {
          "indexed": true,
          "internalType": "uint256",
          "name": "tokenId",
          "type": "uint256"
        }
      ],
      "name": "Transfer",
      "type": "event"
    },
    {
      "anonymous": false,
      "inputs": [
        {
          "indexed": true,
          "internalType": "uint256",
          "name": "tokenId",
          "type": "uint256"
        },
        {
          "indexed": false,
          "internalType": "address",
          "name": "seller",
          "type": "address"
        },
        {
          "indexed": false,
          "internalType": "address",
          "name": "owner",
          "type": "address"
        },
        {
          "indexed": false,
          "internalType": "uint256",
          "name": "price",
          "type": "uint256"
        },
        {
          "indexed": false,
          "internalType": "bool",
          "name": "sold",
          "type": "bool"
        }
      ],
      "name": "idMarketItemCreated",
      "type": "event"
    },
    {
      "inputs": [
        {
          "internalType": "address",
          "name": "to",
          "type": "address"
        },
        {
          "internalType": "uint256",
          "name": "tokenId",
          "type": "uint256"
        }
      ],
      "name": "approve",
      "outputs": [],
      "stateMutability": "nonpayable",
      "type": "function"
    },
    {
      "inputs": [
        {
          "internalType": "address",
          "name": "owner",
          "type": "address"
        }
      ],
      "name": "balanceOf",
      "outputs": [
        {
          "internalType": "uint256",
          "name": "",
          "type": "uint256"
        }
      ],
      "stateMutability": "view",
      "type": "function"
    },
    {
      "inputs": [
        {
          "internalType": "uint256",
          "name": "tokenId",
          "type": "uint256"
        }
      ],
      "name": "createMarketItem",
      "outputs": [],
      "stateMutability": "payable",
      "type": "function"
    },
    {
      "inputs": [
        {
          "internalType": "string",
          "name": "tokenURI",
          "type": "string"
        },
        {
          "internalType": "uint256",
          "name": "price",
          "type": "uint256"
        }
      ],
      "name": "createToken",
      "outputs": [
        {
          "internalType": "uint256",
          "name": "",
          "type": "uint256"
        }
      ],
      "stateMutability": "payable",
      "type": "function"
    },
    {
      "inputs": [],
      "name": "fetchMarketItem",
      "outputs": [
        {
          "components": [
            {
              "internalType": "uint256",
              "name": "tokenId",
              "type": "uint256"
            },
            {
              "internalType": "address payable",
              "name": "seller",
              "type": "address"
            },
            {
              "internalType": "address payable",
              "name": "owner",
              "type": "address"
            },
            {
              "internalType": "uint256",
              "name": "price",
              "type": "uint256"
            },
            {
              "internalType": "bool",
              "name": "sold",
              "type": "bool"
            }
          ],
          "internalType": "struct NightMarket.MarketItem[]",
          "name": "",
          "type": "tuple[]"
        }
      ],
      "stateMutability": "view",
      "type": "function"
    },
    {
      "inputs": [],
      "name": "fetchMyNFT",
      "outputs": [
        {
          "components": [
            {
              "internalType": "uint256",
              "name": "tokenId",
              "type": "uint256"
            },
            {
              "internalType": "address payable",
              "name": "seller",
              "type": "address"
            },
            {
              "internalType": "address payable",
              "name": "owner",
              "type": "address"
            },
            {
              "internalType": "uint256",
              "name": "price",
              "type": "uint256"
            },
            {
              "internalType": "bool",
              "name": "sold",
              "type": "bool"
            }
          ],
          "internalType": "struct NightMarket.MarketItem[]",
          "name": "",
          "type": "tuple[]"
        }
      ],
      "stateMutability": "view",
      "type": "function"
    },
    {
      "inputs": [
        {
          "internalType": "uint256",
          "name": "tokenId",
          "type": "uint256"
        }
      ],
      "name": "getApproved",
      "outputs": [
        {
          "internalType": "address",
          "name": "",
          "type": "address"
        }
      ],
      "stateMutability": "view",
      "type": "function"
    },
    {
      "inputs": [],
      "name": "getListingPrice",
      "outputs": [
        {
          "internalType": "uint256",
          "name": "",
          "type": "uint256"
        }
      ],
      "stateMutability": "view",
      "type": "function"
    },
    {
      "inputs": [
        {
          "internalType": "address",
          "name": "owner",
          "type": "address"
        },
        {
          "internalType": "address",
          "name": "operator",
          "type": "address"
        }
      ],
      "name": "isApprovedForAll",
      "outputs": [
        {
          "internalType": "bool",
          "name": "",
          "type": "bool"
        }
      ],
      "stateMutability": "view",
      "type": "function"
    },
    {
      "inputs": [],
      "name": "name",
      "outputs": [
        {
          "internalType": "string",
          "name": "",
          "type": "string"
        }
      ],
      "stateMutability": "view",
      "type": "function"
    },
    {
      "inputs": [
        {
          "internalType": "uint256",
          "name": "tokenId",
          "type": "uint256"
        }
      ],
      "name": "ownerOf",
      "outputs": [
        {
          "internalType": "address",
          "name": "",
          "type": "address"
        }
      ],
      "stateMutability": "view",
      "type": "function"
    },
    {
      "inputs": [
        {
          "internalType": "uint256",
          "name": "tokenId",
          "type": "uint256"
        },
        {
          "internalType": "uint256",
          "name": "price",
          "type": "uint256"
        }
      ],
      "name": "reSellToken",
      "outputs": [],
      "stateMutability": "payable",
      "type": "function"
    },
    {
      "inputs": [
        {
          "internalType": "address",
          "name": "from",
          "type": "address"
        },
        {
          "internalType": "address",
          "name": "to",
          "type": "address"
        },
        {
          "internalType": "uint256",
          "name": "tokenId",
          "type": "uint256"
        }
      ],
      "name": "safeTransferFrom",
      "outputs": [],
      "stateMutability": "nonpayable",
      "type": "function"
    },
    {
      "inputs": [
        {
          "internalType": "address",
          "name": "from",
          "type": "address"
        },
        {
          "internalType": "address",
          "name": "to",
          "type": "address"
        },
        {
          "internalType": "uint256",
          "name": "tokenId",
          "type": "uint256"
        },
        {
          "internalType": "bytes",
          "name": "data",
          "type": "bytes"
        }
      ],
      "name": "safeTransferFrom",
      "outputs": [],
      "stateMutability": "nonpayable",
      "type": "function"
    },
    {
      "inputs": [
        {
          "internalType": "address",
          "name": "operator",
          "type": "address"
        },
        {
          "internalType": "bool",
          "name": "approved",
          "type": "bool"
        }
      ],
      "name": "setApprovalForAll",
      "outputs": [],
      "stateMutability": "nonpayable",
      "type": "function"
    },
    {
      "inputs": [
        {
          "internalType": "bytes4",
          "name": "interfaceId",
          "type": "bytes4"
        }
      ],
      "name": "supportsInterface",
      "outputs": [
        {
          "internalType": "bool",
          "name": "",
          "type": "bool"
        }
      ],
      "stateMutability": "view",
      "type": "function"
    },
    {
      "inputs": [],
      "name": "symbol",
      "outputs": [
        {
          "internalType": "string",
          "name": "",
          "type": "string"
        }
      ],
      "stateMutability": "view",
      "type": "function"
    },
    {
      "inputs": [
        {
          "internalType": "uint256",
          "name": "tokenId",
          "type": "uint256"
        }
      ],
      "name": "tokenURI",
      "outputs": [
        {
          "internalType": "string",
          "name": "",
          "type": "string"
        }
      ],
      "stateMutability": "view",
      "type": "function"
    },
    {
      "inputs": [
        {
          "internalType": "address",
          "name": "from",
          "type": "address"
        },
        {
          "internalType": "address",
          "name": "to",
          "type": "address"
        },
        {
          "internalType": "uint256",
          "name": "tokenId",
          "type": "uint256"
        }
      ],
      "name": "transferFrom",
      "outputs": [],
      "stateMutability": "nonpayable",
      "type": "function"
    },
    {
      "inputs": [
        {
          "internalType": "uint256",
          "name": "_listingPrice",
          "type": "uint256"
        }
      ],
      "name": "updateListingPrice",
      "outputs": [],
      "stateMutability": "payable",
      "type": "function"
    }
  ],
  "bytecode": "0x60806040526605543df729c00060095534801561001b57600080fd5b506040518060400160405280600e81526020017f56414c4f52414e5420546f6b656e0000000000000000000000000000000000008152506040518060400160405280600381526020017f56414c000000000000000000000000000000000000000000000000000000000081525081600090816100979190610325565b5080600190816100a79190610325565b5050503373ffffffffffffffffffffffffffffffffffffffff16600a60009054906101000a905050506103f7565b600081519050919050565b7f4e487b7100000000000000000000000000000000000000000000000000000000600052604160045260246000fd5b7f4e487b7100000000000000000000000000000000000000000000000000000000600052602260045260246000fd5b6000600282049050600182168061015657607f821691505b6020821081036101695761016861010f565b5b50919050565b60008190508160005260206000209050919050565b60006020601f8301049050919050565b600082821b905092915050565b6000600883026101d17fffffffffffffffffffffffffffffffffffffffffffffffffffffffffffffffff82610194565b6101db8683610194565b95508019841693508086168417925050509392505050565b6000819050919050565b6000819050919050565b600061022261021d610218846101f3565b6101fd565b6101f3565b9050919050565b6000819050919050565b61023c83610207565b61025061024882610229565b8484546101a1565b825550505050565b600090565b610265610258565b610270818484610233565b505050565b5b818110156102945761028960008261025d565b600181019050610276565b5050565b601f8211156102d9576102aa8161016f565b6102b384610184565b810160208510156102c2578190505b6102d66102ce85610184565b830182610275565b50505b505050565b600082821c905092915050565b60006102fc600019846008026102de565b1980831691505092915050565b600061031583836102eb565b9150826002028217905092915050565b61032e826100d5565b67ffffffffffffffff811115610347576103466100e0565b5b610351825461013e565b61035c828285610298565b600060209050601f83116001811461038f576000841561037d578287015190505b6103878582610309565b8655506103ef565b601f19841661039d8661016f565b60005b828110156103c5578489015182556001820191506020850194506020810190506103a0565b868310156103e257848901516103de601f8916826102eb565b8355505b6001600288020188555050505b505050505050565b613de0806104066000396000f3fe60806040526004361061011f5760003560e01c806372b3b620116100a0578063ae677aa311610064578063ae677aa3146103d0578063b88d4fde146103ec578063c18763f714610415578063c87b56dd14610440578063e985e9c51461047d5761011f565b806372b3b6201461030557806385535b25146103355780638fafd0211461035157806395d89b411461037c578063a22cb465146103a75761011f565b806323b872dd116100e757806323b872dd1461021d57806342842e0e146102465780636352211e1461026f5780636d983dd8146102ac57806370a08231146102c85761011f565b806301ffc9a71461012457806306fdde0314610161578063081812fc1461018c578063095ea7b3146101c957806312e85585146101f2575b600080fd5b34801561013057600080fd5b5061014b60048036038101906101469190612642565b6104ba565b604051610158919061268a565b60405180910390f35b34801561016d57600080fd5b5061017661059c565b6040516101839190612735565b60405180910390f35b34801561019857600080fd5b506101b360048036038101906101ae919061278d565b61062e565b6040516101c091906127fb565b60405180910390f35b3480156101d557600080fd5b506101f060048036038101906101eb9190612842565b610674565b005b3480156101fe57600080fd5b5061020761078b565b6040516102149190612891565b60405180910390f35b34801561022957600080fd5b50610244600480360381019061023f91906128ac565b610795565b005b34801561025257600080fd5b5061026d600480360381019061026891906128ac565b6107f5565b005b34801561027b57600080fd5b506102966004803603810190610291919061278d565b610815565b6040516102a391906127fb565b60405180910390f35b6102c660048036038101906102c1919061278d565b6108c6565b005b3480156102d457600080fd5b506102ef60048036038101906102ea91906128ff565b610afe565b6040516102fc9190612891565b60405180910390f35b61031f600480360381019061031a9190612a61565b610bb5565b60405161032c9190612891565b60405180910390f35b61034f600480360381019061034a9190612abd565b610bf7565b005b34801561035d57600080fd5b50610366610dec565b6040516103739190612c53565b60405180910390f35b34801561038857600080fd5b5061039161104e565b60405161039e9190612735565b60405180910390f35b3480156103b357600080fd5b506103ce60048036038101906103c99190612ca1565b6110e0565b005b6103ea60048036038101906103e5919061278d565b6110f6565b005b3480156103f857600080fd5b50610413600480360381019061040e9190612d82565b611190565b005b34801561042157600080fd5b5061042a6111f2565b6040516104379190612c53565b60405180910390f35b34801561044c57600080fd5b506104676004803603810190610462919061278d565b6114d2565b6040516104749190612735565b60405180910390f35b34801561048957600080fd5b506104a4600480360381019061049f9190612e05565b6115e4565b6040516104b1919061268a565b60405180910390f35b60007f80ac58cd000000000000000000000000000000000000000000000000000000007bffffffffffffffffffffffffffffffffffffffffffffffffffffffff1916827bffffffffffffffffffffffffffffffffffffffffffffffffffffffff1916148061058557507f5b5e139f000000000000000000000000000000000000000000000000000000007bffffffffffffffffffffffffffffffffffffffffffffffffffffffff1916827bffffffffffffffffffffffffffffffffffffffffffffffffffffffff1916145b80610595575061059482611678565b5b9050919050565b6060600080546105ab90612e74565b80601f01602080910402602001604051908101604052809291908181526020018280546105d790612e74565b80156106245780601f106105f957610100808354040283529160200191610624565b820191906000526020600020905b81548152906001019060200180831161060757829003601f168201915b5050505050905090565b6000610639826116e2565b6004600083815260200190815260200160002060009054906101000a900473ffffffffffffffffffffffffffffffffffffffff169050919050565b600061067f82610815565b90508073ffffffffffffffffffffffffffffffffffffffff168373ffffffffffffffffffffffffffffffffffffffff16036106ef576040517f08c379a00000000000000000000000000000000000000000000000000000000081526004016106e690612f17565b60405180910390fd5b8073ffffffffffffffffffffffffffffffffffffffff1661070e61172d565b73ffffffffffffffffffffffffffffffffffffffff16148061073d575061073c8161073761172d565b6115e4565b5b61077c576040517f08c379a000000000000000000000000000000000000000000000000000000000815260040161077390612fa9565b60405180910390fd5b6107868383611735565b505050565b6000600954905090565b6107a66107a061172d565b826117ee565b6107e5576040517f08c379a00000000000000000000000000000000000000000000000000000000081526004016107dc9061303b565b60405180910390fd5b6107f0838383611883565b505050565b61081083838360405180602001604052806000815250611190565b505050565b6000806002600084815260200190815260200160002060009054906101000a900473ffffffffffffffffffffffffffffffffffffffff169050600073ffffffffffffffffffffffffffffffffffffffff168173ffffffffffffffffffffffffffffffffffffffff16036108bd576040517f08c379a00000000000000000000000000000000000000000000000000000000081526004016108b4906130a7565b60405180910390fd5b80915050919050565b6000600b6000838152602001908152602001600020600301549050803414610923576040517f08c379a000000000000000000000000000000000000000000000000000000000815260040161091a90613139565b60405180910390fd5b33600b600084815260200190815260200160002060020160006101000a81548173ffffffffffffffffffffffffffffffffffffffff021916908373ffffffffffffffffffffffffffffffffffffffff1602179055506001600b600084815260200190815260200160002060040160006101000a81548160ff0219169083151502179055506000600b600084815260200190815260200160002060020160006101000a81548173ffffffffffffffffffffffffffffffffffffffff021916908373ffffffffffffffffffffffffffffffffffffffff160217905550610a076008611ae9565b610a12303384611883565b600a60009054906101000a900473ffffffffffffffffffffffffffffffffffffffff1673ffffffffffffffffffffffffffffffffffffffff166108fc6009549081150290604051600060405180830381858888f19350505050158015610a7c573d6000803e3d6000fd5b50600b600083815260200190815260200160002060010160009054906101000a900473ffffffffffffffffffffffffffffffffffffffff1673ffffffffffffffffffffffffffffffffffffffff166108fc349081150290604051600060405180830381858888f19350505050158015610af9573d6000803e3d6000fd5b505050565b60008073ffffffffffffffffffffffffffffffffffffffff168273ffffffffffffffffffffffffffffffffffffffff1603610b6e576040517f08c379a0000000000000000000000000000000000000000000000000000000008152600401610b65906131cb565b60405180910390fd5b600360008373ffffffffffffffffffffffffffffffffffffffff1673ffffffffffffffffffffffffffffffffffffffff168152602001908152602001600020549050919050565b6000610bc16007611ae9565b6000610bcd6007611aff565b9050610bd93382611b0d565b610be38185611ce6565b610bed8184611d53565b8091505092915050565b3373ffffffffffffffffffffffffffffffffffffffff16600b600084815260200190815260200160002060020160009054906101000a900473ffffffffffffffffffffffffffffffffffffffff1673ffffffffffffffffffffffffffffffffffffffff1614610c9b576040517f08c379a0000000000000000000000000000000000000000000000000000000008152600401610c929061325d565b60405180910390fd5b6009543414610cdf576040517f08c379a0000000000000000000000000000000000000000000000000000000008152600401610cd6906132ef565b60405180910390fd5b6000600b600084815260200190815260200160002060040160006101000a81548160ff02191690831515021790555080600b60008481526020019081526020016000206003018190555033600b600084815260200190815260200160002060010160006101000a81548173ffffffffffffffffffffffffffffffffffffffff021916908373ffffffffffffffffffffffffffffffffffffffff16021790555030600b600084815260200190815260200160002060020160006101000a81548173ffffffffffffffffffffffffffffffffffffffff021916908373ffffffffffffffffffffffffffffffffffffffff160217905550610ddd6008611f56565b610de8333084611883565b5050565b60606000610dfa6007611aff565b90506000610e086008611aff565b610e126007611aff565b610e1c919061333e565b90506000808267ffffffffffffffff811115610e3b57610e3a612936565b5b604051908082528060200260200182016040528015610e7457816020015b610e61612579565b815260200190600190039081610e595790505b50905060005b84811015611043573073ffffffffffffffffffffffffffffffffffffffff16600b6000600184610eaa9190613372565b815260200190815260200160002060020160009054906101000a900473ffffffffffffffffffffffffffffffffffffffff1673ffffffffffffffffffffffffffffffffffffffff1603611036576000600182610f069190613372565b90506000600b60008381526020019081526020016000209050806040518060a0016040529081600082015481526020016001820160009054906101000a900473ffffffffffffffffffffffffffffffffffffffff1673ffffffffffffffffffffffffffffffffffffffff1673ffffffffffffffffffffffffffffffffffffffff1681526020016002820160009054906101000a900473ffffffffffffffffffffffffffffffffffffffff1673ffffffffffffffffffffffffffffffffffffffff1673ffffffffffffffffffffffffffffffffffffffff168152602001600382015481526020016004820160009054906101000a900460ff161515151581525050848681518110611019576110186133a6565b5b60200260200101819052506001856110319190613372565b945050505b8080600101915050610e7a565b508094505050505090565b60606001805461105d90612e74565b80601f016020809104026020016040519081016040528092919081815260200182805461108990612e74565b80156110d65780601f106110ab576101008083540402835291602001916110d6565b820191906000526020600020905b8154815290600101906020018083116110b957829003601f168201915b5050505050905090565b6110f26110eb61172d565b8383611fb2565b5050565b600a60009054906101000a900473ffffffffffffffffffffffffffffffffffffffff1673ffffffffffffffffffffffffffffffffffffffff163373ffffffffffffffffffffffffffffffffffffffff1614611186576040517f08c379a000000000000000000000000000000000000000000000000000000000815260040161117d90613447565b60405180910390fd5b8060098190555050565b6111a161119b61172d565b836117ee565b6111e0576040517f08c379a00000000000000000000000000000000000000000000000000000000081526004016111d79061303b565b60405180910390fd5b6111ec8484848461211e565b50505050565b606060006112006007611aff565b905060008060005b838110156112a2573373ffffffffffffffffffffffffffffffffffffffff16600b60006001846112389190613372565b815260200190815260200160002060020160009054906101000a900473ffffffffffffffffffffffffffffffffffffffff1673ffffffffffffffffffffffffffffffffffffffff1603611295576001836112929190613372565b92505b8080600101915050611208565b5060008267ffffffffffffffff8111156112bf576112be612936565b5b6040519080825280602002602001820160405280156112f857816020015b6112e5612579565b8152602001906001900390816112dd5790505b50905060005b848110156114c7573373ffffffffffffffffffffffffffffffffffffffff16600b600060018461132e9190613372565b815260200190815260200160002060020160009054906101000a900473ffffffffffffffffffffffffffffffffffffffff1673ffffffffffffffffffffffffffffffffffffffff16036114ba57600060018261138a9190613372565b90506000600b60008381526020019081526020016000209050806040518060a0016040529081600082015481526020016001820160009054906101000a900473ffffffffffffffffffffffffffffffffffffffff1673ffffffffffffffffffffffffffffffffffffffff1673ffffffffffffffffffffffffffffffffffffffff1681526020016002820160009054906101000a900473ffffffffffffffffffffffffffffffffffffffff1673ffffffffffffffffffffffffffffffffffffffff1673ffffffffffffffffffffffffffffffffffffffff168152602001600382015481526020016004820160009054906101000a900460ff16151515158152505084868151811061149d5761149c6133a6565b5b60200260200101819052506001856114b59190613372565b945050505b80806001019150506112fe565b508094505050505090565b60606114dd826116e2565b60006006600084815260200190815260200160002080546114fd90612e74565b80601f016020809104026020016040519081016040528092919081815260200182805461152990612e74565b80156115765780601f1061154b57610100808354040283529160200191611576565b820191906000526020600020905b81548152906001019060200180831161155957829003601f168201915b50505050509050600061158761217a565b9050600081510361159c5781925050506115df565b6000825111156115d15780826040516020016115b99291906134a3565b604051602081830303815290604052925050506115df565b6115da84612191565b925050505b919050565b6000600560008473ffffffffffffffffffffffffffffffffffffffff1673ffffffffffffffffffffffffffffffffffffffff16815260200190815260200160002060008373ffffffffffffffffffffffffffffffffffffffff1673ffffffffffffffffffffffffffffffffffffffff16815260200190815260200160002060009054906101000a900460ff16905092915050565b60007f01ffc9a7000000000000000000000000000000000000000000000000000000007bffffffffffffffffffffffffffffffffffffffffffffffffffffffff1916827bffffffffffffffffffffffffffffffffffffffffffffffffffffffff1916149050919050565b6116eb816121f9565b61172a576040517f08c379a0000000000000000000000000000000000000000000000000000000008152600401611721906130a7565b60405180910390fd5b50565b600033905090565b816004600083815260200190815260200160002060006101000a81548173ffffffffffffffffffffffffffffffffffffffff021916908373ffffffffffffffffffffffffffffffffffffffff160217905550808273ffffffffffffffffffffffffffffffffffffffff166117a883610815565b73ffffffffffffffffffffffffffffffffffffffff167f8c5be1e5ebec7d5bd14f71427d1e84f3dd0314c0f7b2291e5b200ac8c7c3b92560405160405180910390a45050565b6000806117fa83610815565b90508073ffffffffffffffffffffffffffffffffffffffff168473ffffffffffffffffffffffffffffffffffffffff16148061183c575061183b81856115e4565b5b8061187a57508373ffffffffffffffffffffffffffffffffffffffff166118628461062e565b73ffffffffffffffffffffffffffffffffffffffff16145b91505092915050565b8273ffffffffffffffffffffffffffffffffffffffff166118a382610815565b73ffffffffffffffffffffffffffffffffffffffff16146118f9576040517f08c379a00000000000000000000000000000000000000000000000000000000081526004016118f090613539565b60405180910390fd5b600073ffffffffffffffffffffffffffffffffffffffff168273ffffffffffffffffffffffffffffffffffffffff1603611968576040517f08c379a000000000000000000000000000000000000000000000000000000000815260040161195f906135cb565b60405180910390fd5b611973838383612265565b61197e600082611735565b6001600360008573ffffffffffffffffffffffffffffffffffffffff1673ffffffffffffffffffffffffffffffffffffffff16815260200190815260200160002060008282546119ce919061333e565b925050819055506001600360008473ffffffffffffffffffffffffffffffffffffffff1673ffffffffffffffffffffffffffffffffffffffff1681526020019081526020016000206000828254611a259190613372565b92505081905550816002600083815260200190815260200160002060006101000a81548173ffffffffffffffffffffffffffffffffffffffff021916908373ffffffffffffffffffffffffffffffffffffffff160217905550808273ffffffffffffffffffffffffffffffffffffffff168473ffffffffffffffffffffffffffffffffffffffff167fddf252ad1be2c89b69c2b068fc378daa952ba7f163c4a11628f55a4df523b3ef60405160405180910390a4611ae483838361226a565b505050565b6001816000016000828254019250508190555050565b600081600001549050919050565b600073ffffffffffffffffffffffffffffffffffffffff168273ffffffffffffffffffffffffffffffffffffffff1603611b7c576040517f08c379a0000000000000000000000000000000000000000000000000000000008152600401611b7390613637565b60405180910390fd5b611b85816121f9565b15611bc5576040517f08c379a0000000000000000000000000000000000000000000000000000000008152600401611bbc906136a3565b60405180910390fd5b611bd160008383612265565b6001600360008473ffffffffffffffffffffffffffffffffffffffff1673ffffffffffffffffffffffffffffffffffffffff1681526020019081526020016000206000828254611c219190613372565b92505081905550816002600083815260200190815260200160002060006101000a81548173ffffffffffffffffffffffffffffffffffffffff021916908373ffffffffffffffffffffffffffffffffffffffff160217905550808273ffffffffffffffffffffffffffffffffffffffff16600073ffffffffffffffffffffffffffffffffffffffff167fddf252ad1be2c89b69c2b068fc378daa952ba7f163c4a11628f55a4df523b3ef60405160405180910390a4611ce26000838361226a565b5050565b611cef826121f9565b611d2e576040517f08c379a0000000000000000000000000000000000000000000000000000000008152600401611d2590613735565b60405180910390fd5b80600660008481526020019081526020016000209081611d4e9190613901565b505050565b60008111611d96576040517f08c379a0000000000000000000000000000000000000000000000000000000008152600401611d8d90613a1f565b60405180910390fd5b6009543414611dda576040517f08c379a0000000000000000000000000000000000000000000000000000000008152600401611dd1906132ef565b60405180910390fd5b6040518060a001604052808381526020013373ffffffffffffffffffffffffffffffffffffffff1681526020013073ffffffffffffffffffffffffffffffffffffffff16815260200182815260200160001515815250600b60008481526020019081526020016000206000820151816000015560208201518160010160006101000a81548173ffffffffffffffffffffffffffffffffffffffff021916908373ffffffffffffffffffffffffffffffffffffffff16021790555060408201518160020160006101000a81548173ffffffffffffffffffffffffffffffffffffffff021916908373ffffffffffffffffffffffffffffffffffffffff1602179055506060820151816003015560808201518160040160006101000a81548160ff021916908315150217905550905050611f13333084611883565b817fdebdb32cb5230ab727c9c361b16fdb2015df225c10e6a3e7f60ecd5dc5be45163330846000604051611f4a9493929190613a3f565b60405180910390a25050565b60008160000154905060008111611fa2576040517f08c379a0000000000000000000000000000000000000000000000000000000008152600401611f9990613ad0565b60405180910390fd5b6001810382600001819055505050565b8173ffffffffffffffffffffffffffffffffffffffff168373ffffffffffffffffffffffffffffffffffffffff1603612020576040517f08c379a000000000000000000000000000000000000000000000000000000000815260040161201790613b3c565b60405180910390fd5b80600560008573ffffffffffffffffffffffffffffffffffffffff1673ffffffffffffffffffffffffffffffffffffffff16815260200190815260200160002060008473ffffffffffffffffffffffffffffffffffffffff1673ffffffffffffffffffffffffffffffffffffffff16815260200190815260200160002060006101000a81548160ff0219169083151502179055508173ffffffffffffffffffffffffffffffffffffffff168373ffffffffffffffffffffffffffffffffffffffff167f17307eab39ab6107e8899845ad3d59bd9653f200f220920489ca2b5937696c3183604051612111919061268a565b60405180910390a3505050565b612129848484611883565b6121358484848461226f565b612174576040517f08c379a000000000000000000000000000000000000000000000000000000000815260040161216b90613bce565b60405180910390fd5b50505050565b606060405180602001604052806000815250905090565b606061219c826116e2565b60006121a661217a565b905060008151116121c657604051806020016040528060008152506121f1565b806121d0846123f6565b6040516020016121e19291906134a3565b6040516020818303038152906040525b915050919050565b60008073ffffffffffffffffffffffffffffffffffffffff166002600084815260200190815260200160002060009054906101000a900473ffffffffffffffffffffffffffffffffffffffff1673ffffffffffffffffffffffffffffffffffffffff1614159050919050565b505050565b505050565b60006122908473ffffffffffffffffffffffffffffffffffffffff16612556565b156123e9578373ffffffffffffffffffffffffffffffffffffffff1663150b7a026122b961172d565b8786866040518563ffffffff1660e01b81526004016122db9493929190613c43565b6020604051808303816000875af192505050801561231757506040513d601f19601f820116820180604052508101906123149190613ca4565b60015b612399573d8060008114612347576040519150601f19603f3d011682016040523d82523d6000602084013e61234c565b606091505b506000815103612391576040517f08c379a000000000000000000000000000000000000000000000000000000000815260040161238890613bce565b60405180910390fd5b805181602001fd5b63150b7a0260e01b7bffffffffffffffffffffffffffffffffffffffffffffffffffffffff1916817bffffffffffffffffffffffffffffffffffffffffffffffffffffffff1916149150506123ee565b600190505b949350505050565b60606000820361243d576040518060400160405280600181526020017f30000000000000000000000000000000000000000000000000000000000000008152509050612551565b600082905060005b6000821461246f57808061245890613cd1565b915050600a826124689190613d48565b9150612445565b60008167ffffffffffffffff81111561248b5761248a612936565b5b6040519080825280601f01601f1916602001820160405280156124bd5781602001600182028036833780820191505090505b5090505b6000851461254a576001826124d6919061333e565b9150600a856124e59190613d79565b60306124f19190613372565b60f81b818381518110612507576125066133a6565b5b60200101907effffffffffffffffffffffffffffffffffffffffffffffffffffffffffffff1916908160001a905350600a856125439190613d48565b94506124c1565b8093505050505b919050565b6000808273ffffffffffffffffffffffffffffffffffffffff163b119050919050565b6040518060a0016040528060008152602001600073ffffffffffffffffffffffffffffffffffffffff168152602001600073ffffffffffffffffffffffffffffffffffffffff168152602001600081526020016000151581525090565b6000604051905090565b600080fd5b600080fd5b60007fffffffff0000000000000000000000000000000000000000000000000000000082169050919050565b61261f816125ea565b811461262a57600080fd5b50565b60008135905061263c81612616565b92915050565b600060208284031215612658576126576125e0565b5b60006126668482850161262d565b91505092915050565b60008115159050919050565b6126848161266f565b82525050565b600060208201905061269f600083018461267b565b92915050565b600081519050919050565b600082825260208201905092915050565b60005b838110156126df5780820151818401526020810190506126c4565b60008484015250505050565b6000601f19601f8301169050919050565b6000612707826126a5565b61271181856126b0565b93506127218185602086016126c1565b61272a816126eb565b840191505092915050565b6000602082019050818103600083015261274f81846126fc565b905092915050565b6000819050919050565b61276a81612757565b811461277557600080fd5b50565b60008135905061278781612761565b92915050565b6000602082840312156127a3576127a26125e0565b5b60006127b184828501612778565b91505092915050565b600073ffffffffffffffffffffffffffffffffffffffff82169050919050565b60006127e5826127ba565b9050919050565b6127f5816127da565b82525050565b600060208201905061281060008301846127ec565b92915050565b61281f816127da565b811461282a57600080fd5b50565b60008135905061283c81612816565b92915050565b60008060408385031215612859576128586125e0565b5b60006128678582860161282d565b925050602061287885828601612778565b9150509250929050565b61288b81612757565b82525050565b60006020820190506128a66000830184612882565b92915050565b6000806000606084860312156128c5576128c46125e0565b5b60006128d38682870161282d565b93505060206128e48682870161282d565b92505060406128f586828701612778565b9150509250925092565b600060208284031215612915576129146125e0565b5b60006129238482850161282d565b91505092915050565b600080fd5b600080fd5b7f4e487b7100000000000000000000000000000000000000000000000000000000600052604160045260246000fd5b61296e826126eb565b810181811067ffffffffffffffff8211171561298d5761298c612936565b5b80604052505050565b60006129a06125d6565b90506129ac8282612965565b919050565b600067ffffffffffffffff8211156129cc576129cb612936565b5b6129d5826126eb565b9050602081019050919050565b82818337600083830152505050565b6000612a046129ff846129b1565b612996565b905082815260208101848484011115612a2057612a1f612931565b5b612a2b8482856129e2565b509392505050565b600082601f830112612a4857612a4761292c565b5b8135612a588482602086016129f1565b91505092915050565b60008060408385031215612a7857612a776125e0565b5b600083013567ffffffffffffffff811115612a9657612a956125e5565b5b612aa285828601612a33565b9250506020612ab385828601612778565b9150509250929050565b60008060408385031215612ad457612ad36125e0565b5b6000612ae285828601612778565b9250506020612af385828601612778565b9150509250929050565b600081519050919050565b600082825260208201905092915050565b6000819050602082019050919050565b612b3281612757565b82525050565b6000612b43826127ba565b9050919050565b612b5381612b38565b82525050565b612b628161266f565b82525050565b60a082016000820151612b7e6000850182612b29565b506020820151612b916020850182612b4a565b506040820151612ba46040850182612b4a565b506060820151612bb76060850182612b29565b506080820151612bca6080850182612b59565b50505050565b6000612bdc8383612b68565b60a08301905092915050565b6000602082019050919050565b6000612c0082612afd565b612c0a8185612b08565b9350612c1583612b19565b8060005b83811015612c46578151612c2d8882612bd0565b9750612c3883612be8565b925050600181019050612c19565b5085935050505092915050565b60006020820190508181036000830152612c6d8184612bf5565b905092915050565b612c7e8161266f565b8114612c8957600080fd5b50565b600081359050612c9b81612c75565b92915050565b60008060408385031215612cb857612cb76125e0565b5b6000612cc68582860161282d565b9250506020612cd785828601612c8c565b9150509250929050565b600067ffffffffffffffff821115612cfc57612cfb612936565b5b612d05826126eb565b9050602081019050919050565b6000612d25612d2084612ce1565b612996565b905082815260208101848484011115612d4157612d40612931565b5b612d4c8482856129e2565b509392505050565b600082601f830112612d6957612d6861292c565b5b8135612d79848260208601612d12565b91505092915050565b60008060008060808587031215612d9c57612d9b6125e0565b5b6000612daa8782880161282d565b9450506020612dbb8782880161282d565b9350506040612dcc87828801612778565b925050606085013567ffffffffffffffff811115612ded57612dec6125e5565b5b612df987828801612d54565b91505092959194509250565b60008060408385031215612e1c57612e1b6125e0565b5b6000612e2a8582860161282d565b9250506020612e3b8582860161282d565b9150509250929050565b7f4e487b7100000000000000000000000000000000000000000000000000000000600052602260045260246000fd5b60006002820490506001821680612e8c57607f821691505b602082108103612e9f57612e9e612e45565b5b50919050565b7f4552433732313a20617070726f76616c20746f2063757272656e74206f776e6560008201527f7200000000000000000000000000000000000000000000000000000000000000602082015250565b6000612f016021836126b0565b9150612f0c82612ea5565b604082019050919050565b60006020820190508181036000830152612f3081612ef4565b9050919050565b7f4552433732313a20617070726f76652063616c6c6572206973206e6f7420746f60008201527f6b656e206f776e6572206e6f7220617070726f76656420666f7220616c6c0000602082015250565b6000612f93603e836126b0565b9150612f9e82612f37565b604082019050919050565b60006020820190508181036000830152612fc281612f86565b9050919050565b7f4552433732313a2063616c6c6572206973206e6f7420746f6b656e206f776e6560008201527f72206e6f7220617070726f766564000000000000000000000000000000000000602082015250565b6000613025602e836126b0565b915061303082612fc9565b604082019050919050565b6000602082019050818103600083015261305481613018565b9050919050565b7f4552433732313a20696e76616c696420746f6b656e2049440000000000000000600082015250565b60006130916018836126b0565b915061309c8261305b565b602082019050919050565b600060208201905081810360008301526130c081613084565b9050919050565b7f506c65617365207375626d6974207468652061736b696e67207072696365207460008201527f6f20636f6d706c65746520746865206f72646572000000000000000000000000602082015250565b60006131236034836126b0565b915061312e826130c7565b604082019050919050565b6000602082019050818103600083015261315281613116565b9050919050565b7f4552433732313a2061646472657373207a65726f206973206e6f74206120766160008201527f6c6964206f776e65720000000000000000000000000000000000000000000000602082015250565b60006131b56029836126b0565b91506131c082613159565b604082019050919050565b600060208201905081810360008301526131e4816131a8565b9050919050565b7f4f6e6c79206974656d206f776e65722063616e20706572666f726d207468697360008201527f206f7065726174696f6e00000000000000000000000000000000000000000000602082015250565b6000613247602a836126b0565b9150613252826131eb565b604082019050919050565b600060208201905081810360008301526132768161323a565b9050919050565b7f5072696365206d75737420626520657175616c20746f206c697374696e67207060008201527f7269636500000000000000000000000000000000000000000000000000000000602082015250565b60006132d96024836126b0565b91506132e48261327d565b604082019050919050565b60006020820190508181036000830152613308816132cc565b9050919050565b7f4e487b7100000000000000000000000000000000000000000000000000000000600052601160045260246000fd5b600061334982612757565b915061335483612757565b925082820390508181111561336c5761336b61330f565b5b92915050565b600061337d82612757565b915061338883612757565b92508282019050808211156133a05761339f61330f565b5b92915050565b7f4e487b7100000000000000000000000000000000000000000000000000000000600052603260045260246000fd5b7f6f6e6c79206f776e6572206f6620746865204d61726b6574706c61636520636160008201527f6e206368616e676520746865206c697374696e67207072696365000000000000602082015250565b6000613431603a836126b0565b915061343c826133d5565b604082019050919050565b6000602082019050818103600083015261346081613424565b9050919050565b600081905092915050565b600061347d826126a5565b6134878185613467565b93506134978185602086016126c1565b80840191505092915050565b60006134af8285613472565b91506134bb8284613472565b91508190509392505050565b7f4552433732313a207472616e736665722066726f6d20696e636f72726563742060008201527f6f776e6572000000000000000000000000000000000000000000000000000000602082015250565b60006135236025836126b0565b915061352e826134c7565b604082019050919050565b6000602082019050818103600083015261355281613516565b9050919050565b7f4552433732313a207472616e7366657220746f20746865207a65726f2061646460008201527f7265737300000000000000000000000000000000000000000000000000000000602082015250565b60006135b56024836126b0565b91506135c082613559565b604082019050919050565b600060208201905081810360008301526135e4816135a8565b9050919050565b7f4552433732313a206d696e7420746f20746865207a65726f2061646472657373600082015250565b60006136216020836126b0565b915061362c826135eb565b602082019050919050565b6000602082019050818103600083015261365081613614565b9050919050565b7f4552433732313a20746f6b656e20616c7265616479206d696e74656400000000600082015250565b600061368d601c836126b0565b915061369882613657565b602082019050919050565b600060208201905081810360008301526136bc81613680565b9050919050565b7f45524337323155524953746f726167653a2055524920736574206f66206e6f6e60008201527f6578697374656e7420746f6b656e000000000000000000000000000000000000602082015250565b600061371f602e836126b0565b915061372a826136c3565b604082019050919050565b6000602082019050818103600083015261374e81613712565b9050919050565b60008190508160005260206000209050919050565b60006020601f8301049050919050565b600082821b905092915050565b6000600883026137b77fffffffffffffffffffffffffffffffffffffffffffffffffffffffffffffffff8261377a565b6137c1868361377a565b95508019841693508086168417925050509392505050565b6000819050919050565b60006137fe6137f96137f484612757565b6137d9565b612757565b9050919050565b6000819050919050565b613818836137e3565b61382c61382482613805565b848454613787565b825550505050565b600090565b613841613834565b61384c81848461380f565b505050565b5b8181101561387057613865600082613839565b600181019050613852565b5050565b601f8211156138b55761388681613755565b61388f8461376a565b8101602085101561389e578190505b6138b26138aa8561376a565b830182613851565b50505b505050565b600082821c905092915050565b60006138d8600019846008026138ba565b1980831691505092915050565b60006138f183836138c7565b9150826002028217905092915050565b61390a826126a5565b67ffffffffffffffff81111561392357613922612936565b5b61392d8254612e74565b613938828285613874565b600060209050601f83116001811461396b5760008415613959578287015190505b61396385826138e5565b8655506139cb565b601f19841661397986613755565b60005b828110156139a15784890151825560018201915060208501945060208101905061397c565b868310156139be57848901516139ba601f8916826138c7565b8355505b6001600288020188555050505b505050505050565b7f5072696365206d7573742062652061746c656173742031000000000000000000600082015250565b6000613a096017836126b0565b9150613a14826139d3565b602082019050919050565b60006020820190508181036000830152613a38816139fc565b9050919050565b6000608082019050613a5460008301876127ec565b613a6160208301866127ec565b613a6e6040830185612882565b613a7b606083018461267b565b95945050505050565b7f436f756e7465723a2064656372656d656e74206f766572666c6f770000000000600082015250565b6000613aba601b836126b0565b9150613ac582613a84565b602082019050919050565b60006020820190508181036000830152613ae981613aad565b9050919050565b7f4552433732313a20617070726f766520746f2063616c6c657200000000000000600082015250565b6000613b266019836126b0565b9150613b3182613af0565b602082019050919050565b60006020820190508181036000830152613b5581613b19565b9050919050565b7f4552433732313a207472616e7366657220746f206e6f6e20455243373231526560008201527f63656976657220696d706c656d656e7465720000000000000000000000000000602082015250565b6000613bb86032836126b0565b9150613bc382613b5c565b604082019050919050565b60006020820190508181036000830152613be781613bab565b9050919050565b600081519050919050565b600082825260208201905092915050565b6000613c1582613bee565b613c1f8185613bf9565b9350613c2f8185602086016126c1565b613c38816126eb565b840191505092915050565b6000608082019050613c5860008301876127ec565b613c6560208301866127ec565b613c726040830185612882565b8181036060830152613c848184613c0a565b905095945050505050565b600081519050613c9e81612616565b92915050565b600060208284031215613cba57613cb96125e0565b5b6000613cc884828501613c8f565b91505092915050565b6000613cdc82612757565b91507fffffffffffffffffffffffffffffffffffffffffffffffffffffffffffffffff8203613d0e57613d0d61330f565b5b600182019050919050565b7f4e487b7100000000000000000000000000000000000000000000000000000000600052601260045260246000fd5b6000613d5382612757565b9150613d5e83612757565b925082613d6e57613d6d613d19565b5b828204905092915050565b6000613d8482612757565b9150613d8f83612757565b925082613d9f57613d9e613d19565b5b82820690509291505056fea26469706673582212201fc4dc4910e2e5bc9cc35375a667b6e486840aa28466833c6454c87511bc0b6664736f6c634300081b0033",
  "linkReferences": {},
  "deployedLinkReferences": {}
}